{
  "contractName": "Ownable",
  "abi": [
    {
      "inputs": [],
      "stateMutability": "nonpayable",
      "type": "constructor"
    },
    {
      "inputs": [],
      "name": "isOwner",
      "outputs": [
        {
          "internalType": "bool",
          "name": "",
          "type": "bool"
        }
      ],
      "stateMutability": "view",
      "type": "function"
    }
  ],
  "bytecode": "0x6080604052348015600f57600080fd5b50336000806101000a81548173ffffffffffffffffffffffffffffffffffffffff021916908373ffffffffffffffffffffffffffffffffffffffff16021790555060da8061005e6000396000f3fe6080604052348015600f57600080fd5b506004361060285760003560e01c80638f32d59b14602d575b600080fd5b6033604d565b604051808215151515815260200191505060405180910390f35b60008060009054906101000a900473ffffffffffffffffffffffffffffffffffffffff1673ffffffffffffffffffffffffffffffffffffffff163373ffffffffffffffffffffffffffffffffffffffff161490509056fea2646970667358221220a19145249b1efb444f072201834f40c6d775bb49107fe487c7e247550461696864736f6c63430006010033",
  "source": "pragma solidity ^0.6.0;\n\ncontract Ownable {\n    address payable _owner;\n\n    constructor() public {\n        _owner = msg.sender;\n    }\n\n    /**\n     * @dev Throws if called by any account other than the owner.\n     */\n    modifier onlyOwner() {\n        require(isOwner(), \"Ownable: caller is not the owner\");\n        _;\n    }\n\n    /**\n     * @dev Returns true if the caller is the current owner.\n     */\n    function isOwner() public view returns (bool) {\n        return (msg.sender == _owner);\n    }\n}\n",
  "sourcePath": "/Users/alexlee/Documents/Dev/solidity-code/Supply/contracts/Ownable.sol",
  "compiler": {
    "name": "solc",
    "version": "0.6.1+commit.e6f7d5a4.Emscripten.clang"
  },
  "schemaVersion": "3.0.20",
  "updatedAt": "2020-01-28T13:13:26.585Z",
  "devdoc": {
    "methods": {
      "isOwner()": {
        "details": "Returns true if the caller is the current owner."
      }
    }
  },
  "userdoc": {
    "methods": {}
  }
}